:100000000C942A000C9447000C9447000C94470071
:100010000C9447000C9447000C9447000C94470044
:100020000C9447000C9447000C9447000C94470034
:100030000C9447000C9447000C9447000C94470024
:100040000C9447000C9447000C9447000C94470014
:100050000C94470011241FBECFE5D4E0DEBFCDBF16
:1000600010E0A0E6B0E0EAE4F1E002C005900D92F5
:10007000A036B107D9F710E0A0E6B0E001C01D92AC
:10008000A036B107E1F70E9449000C94A3000C943C
:1000900000000F931F938FEF84BB81BB8EE085BB65
:1000A00028EC30E000E810E4B0E2A0E178E064E0A1
:1000B00052E041E012BA88EE93E0F9013197F1F78E
:1000C0000197D9F702BB88EE93E0F9013197F1F778
:1000D0000197D9F712BB88EE93E0F9013197F1F758
:1000E0000197D9F7B2BB88EE93E0F9013197F1F7A8
:1000F0000197D9F7A2BB88EE93E0F9013197F1F7A8
:100100000197D9F772BB88EE93E0F9013197F1F7C7
:100110000197D9F762BB88EE93E0F9013197F1F7C7
:100120000197D9F752BB88EE93E0F9013197F1F7C7
:100130000197D9F742BB88EE93E0F9013197F1F7C7
:0A0140000197D9F7B7CFF894FFCF6D
:00000001FF
